:020000040800F2
:10000000B8270020D900000899260008A10100089F
:1000100000000000000000000000000000000000E0
:10002000000000000000000000000000E5000008E3
:1000300000000000000000001F010008D52C00088F
:10004000EB000008EB000008EB000008EB000008E4
:10005000EB00000879080008EB000008DD08000844
:10006000EB00000815080008EB000008EB00000892
:10007000EB000008C52D0008EB000008EB000008AD
:10008000EB000008EB000008EB000008EB000008A4
:10009000EB000008EB000008EB000008EB00000894
:1000A000EB000008EB000008EB000008EB00000884
:1000B000EB000008EB000008EB000008EB00000874
:1000C0000448854600F004FB00480047F506000898
:1000D000C046C046B827002004488047044800476F
:1000E000FEE7FEE7FEE7FEE7FEE7FEE7C12D0008BC
:1000F000C1000008EFF3108072B6704780F31088DB
:1001000070472A4A1368012B03D001231360284A41
:100110001060284A11602848284901607047EFF3B1
:10012000108272B62148016800291DD000210160AB
:100130001F48016800290AD0EFF3098120390068BF
:100140000160F0C144464D4656465F46F0C119492C
:1001500009680968F0C9F0B4F0C9A046A946B246DA
:10016000BB46F0BC81F3098882F31088042040422A
:100170000047104908600E49002008600B49012023
:1001800008600F480F490268114301600A480B4993
:1001900001600D480068006880F3088862B6704707
:1001A000EFF3098000B504F02DFB00BDDC0000205A
:1001B000D4000020D800002004ED00E00000001072
:1001C00020ED00E00000FF0008ED00E030B50B4638
:1001D000014600202022012409E00D46D5409D4221
:1001E00005D31D469540491B2546954040191546A7
:1001F000521E002DF1DC30BD70B5002425460028CC
:1002000001DA01244042002901DA01254942FFF7C1
:10021000DDFFAC4200D04042002C00D0494270BD0E
:10022000F0B51FB40646002082B005464024019177
:1002300000901BE0019922460F46304600F020F85E
:10024000049A059B801A994110D3104619462246FC
:1002500000F0CEF9361A8F41019722460120002185
:10026000009F00F0C5F938184D4100902046641EEB
:100270000028DFDC019B00982946324607B0F0BD1C
:1002800010B5202A04DB0846203AD040002110BDDA
:100290000B46D340D0402024A21A9140084319466F
:1002A00010BD03460B439B0703D009E008C9121F8A
:1002B00008C0042AFAD203E00B780370401C491CE2
:1002C000521EF9D27047D2B201E00270401C491EA2
:1002D000FBD270470022F6E710B513460A460446E3
:1002E0001946FFF7F0FF204610BD421E5378521CFE
:1002F000002BFBD10B781370491C521C002BF9D139
:10030000704710B5044605E00B780370401C002BC5
:1003100000D0491C521EF7D2204610BD421C017865
:10032000401C0029FBD1801A704703460A780270EE
:10033000401C491C002AF9D11846704730B50546C3
:100340000020034600E05B1C934205D2EC5CC85CD5
:10035000201A01D1002CF6D130BD0000F0B51FB439
:1003600088B00B990998002448400999C00F4900AA
:1003700049080991C0070B990090490049080B9161
:1003800009990898A64608431CD00B990A98084377
:1003900018D0099801244000420D4800410D0998E9
:1003A00024050003000B204309900B980003000B69
:1003B00020430B9050181C4940180022019014460D
:1003C000104605E0002001460DB0F0BD032801DA1B
:1003D000034600E003239C46C11A0AAE0AE05F0010
:1003E00008ADED5B4F00F75B7D430027AA187C4109
:1003F000491C5B1E6145F2DD410004AB5A522104E9
:10040000120C0A43240C401C0828DFDB01980290E0
:100410000099704601910090059B049A07990698EF
:1004200000F003F9D0E700000DFCFFFFF0B50C462B
:100430005C4085B0E40FE40703944C000026640898
:1004400059009446490802460296224321D062464A
:100450000A431ED06200570D4A000E032303550DB8
:10046000012402462C492405781B1B0B360B40182F
:1004700023432643614600901C46501AB44103D3DF
:100480000098401C009002E0921800985B41002800
:1004900003DA0020014605B0F0BD00200121090566
:1004A0000746864611E064461D46141BB54106D337
:1004B0006546521BB341744607430C43A646CD071D
:1004C00040084908284392185B4105460D43EAD18C
:1004D0001046184313D060461946504071400843F7
:1004E00006D06046101AB34106D20122002306E06E
:1004F00000220123DB0702E00122D24353100098BF
:1005000074460105381C6141029C039D0019694134
:1005100000F07EF8BFE70000FD03000070B54B005F
:100520005B0803430BD04B005C0D0026334665424D
:10053000B341D417AD1AA34102DB0020014670BDC0
:1005400012053018514170BD0EB5C217C10F504091
:10055000CA0740180021054B0293019200910A46F8
:100560000B4600F062F803B000BD00003304000049
:100570000EB505490291002100910A460B460191F2
:1005800000F053F803B000BD330400004A00090333
:100590000123090B1B051943094B10B5520D9A4253
:1005A00001DA002010BD064B34339A4203DC9A1A5C
:1005B000FFF766FE10BD03495118884010BD0000CA
:1005C000FF030000CDFBFFFF10B5002904DB012471
:1005D000E40740428C412146002B04DB1C460123EA
:1005E000DB075242A341994200D1904210BD000066
:1005F00010B5202A04DB0146203A9140002010BDAE
:10060000914020239C1A0346E3401943904010BDBB
:1006100010B5002B08DA0024401C614192185B41A0
:100620001A4301D14008400010BDF0B51FB482B09C
:1006300005460C0003D0084602F0BCFD02E002F0C3
:10064000B9FD20300246009021462846FFF7D0FF32
:10065000049B059A04460F4618431143084314D0DF
:10066000184610431BD0009840210A1A18460599D5
:10067000FFF706FE05460E46009A05990498FFF717
:10068000B7FF084305D0012004E02046394607B0F3
:10069000F0BD0020C11705430E432C43374300999A
:1006A0000E986305401A7905E40A00220C43FD0AFE
:1006B0000A3002D500200146E9E701051019694119
:1006C0000C9C0D9D00196941FFF7A2FFDFE70000B8
:1006D000064C0125064E05E0E36807CC2B430C3C95
:1006E00098471034B442F7D3FFF7EEFCB07D000812
:1006F000D07D000810B505F049FD002010BD10B5F3
:100700000146406A826B50231A420AD1816B012252
:100710005202114381630168CA681205920F05D025
:1007200020E0006B026B0846904710BD827E002AD5
:1007300018D10A68120715D58A6853070122002BC1
:1007400009DB4B680C24A3434B60816B1302994374
:100750001143816306E0816B202319438163C16BE0
:100760001143C16300F0F0F910BD10B5406A816B10
:10077000402211438163C16B04221143C16300F025
:10078000E5F910BD10B5406A00F0DFF910BD0000BA
:10079000F8B5044600200090206881688907890F19
:1007A000012905D10168C9072CD1C168090429D4E0
:1007B0008168154A102611400125002915D181684C
:1007C00029438160124811490068FFF7FFFC00E0EF
:1007D000401E00900028FBD100F010FD07460CE001
:1007E00000F00CFDC01B022807D9A06B3043A063AA
:1007F000E06B2843E0630120F8BD20680068C04337
:10080000C007EDD10020F8BD1700008040420F0066
:100810000C00002010B504F08BF8034800F080FBBA
:1008200004F098F810BD0000F405002010B504464F
:100830000068054940181421FFF7C8FC80002064B7
:100840000248E06310BD0000F8FFFDBF0000024059
:1008500030B5056C0124AC40C56B6C600468636006
:100860004368102B036803D099600068C26030BDF4
:100870009A600068C16030BD70B504F059F801207D
:1008800001F080FD00281FD011490120486132206D
:1008900002F092FE0F4D0121284601F0D4FD002800
:1008A00012D00221284601F0CEFD0B4C002802D0C8
:1008B0002088401E07E00221284601F0C4FD0028E0
:1008C00002D12088401C208004F044F870BD000054
:1008D00000040140000400481E00002070B504F030
:1008E00027F8402001F04EFD09251B4CED0600289D
:1008F00013D040216161322002F05EFE4021284683
:1009000001F0A1FD002808D114480188002915D064
:1009100000210180124901200870802001F032FD81
:10092000002816D080206061322002F045FE802130
:10093000284601F088FD002802D00AE00121E8E7FE
:1009400008480178491E49B20170002901DA0721DF
:10095000017003F0FFFF70BD00040140140000208F
:1009600010000020120000207047F8B5054604462C
:100970002035287D0026012808D001202875206810
:1009800081688907890F012908D101E00220F8BD9B
:100990000168C90738D1C168090435D4A16BFF22A9
:1009A0000132914302221143A163C1688907890F73
:1009B0000091C16889088900C16020688168920738
:1009C0001143816000F01AFC07460EE000F016FCAF
:1009D000C01B022809D9A06B0221884310210843BB
:1009E000A063002028750120F8BD206880680028D9
:1009F000ECDB2068C168009A1143C160A06B8008DD
:100A00008000401CA06304E0A06B20210843A06389
:100A10000126002028753046F8BD0000F8B50025F5
:100A2000044620340095227D012A3BD00122227504
:100A300003689E68760776D43F4F4E68BE4254D016
:100A40009E6A0F78BA4016439E620123C26A1B0752
:100A50009A421FD0012A1DD0022A1BD0032A19D086
:100A6000042A17D0052A15D0062A13D0072A11D038
:100A700002688B6856697607760FB3420AD05369CD
:100A8000DB08DB005361006842690B7A5B075B0F90
:100A90001A4342610868102806D0112804D0122891
:100AA00002D045E00220F8BD244A9368102809D0FE
:100AB00011280AD00120000603439360086810281B
:100AC00006D035E00120C005F6E701208005F3E7F8
:100AD0001C481B490068FFF779FB0A21484300E0E6
:100AE000401E00900028FBD122E0986A0E78B240A8
:100AF000904398620868102803D0112801D012286A
:100B000016D10E498A68102807D0112808D0012074
:100B1000000682438A600BE005E00120C005F8E78B
:100B200001208005F5E7816B2022114381630125B7
:100B3000002020752846F8BD011000000027014064
:100B400040420F000C0000207047704770470000C3
:100B5000F8B500260446002805D0A06B25462035B0
:100B6000002802D007E00120F8BD0020E0632875CE
:100B7000204600F0A9F8A06B1022C006002870DB08
:100B80002068816849076CD4A16B13019943022343
:100B90001943A16381688907890F012905D101687B
:100BA000C9070FD1C16809040CD4C168182399433F
:100BB000A3681943C16020680169636889008908D6
:100BC000194301612068C1683D4B1940C160207E16
:100BD000617E8003C9030843A17E4B031843A36AC7
:100BE000012B02D001231B0300E000231843E3681C
:100BF00018432369022B09D0002318432B79E57E83
:100C00005B0018430123012D02D00AE00423F4E71E
:100C1000002927D0A16B20252943A163E16B19434B
:100C2000E163E1690D46FF3DC23D02D0256A2943DB
:100C300008432168CD680543CD600125E16A2D0791
:100C4000A94213D0012911D002290FD003290DD0B8
:100C500004290BD0052909D0062907D0072905D07A
:100C600010E028E0012109040843DAE721684D6912
:100C7000ED08ED004D6121684D69A78D7F077F0F5D
:100C80003D434D612168C9680E4D2940814207D11D
:100C90000020E063A06B80088000401CA06308E097
:100CA000A06B022188431043A063E06B1843E0630C
:100CB00001263046F8BDA06B1043A063F8E70000A2
:100CC0001902FEFFE7FF3F8370B586B00646142188
:100CD0006846FFF7FFFA1B49306888422FD11A494E
:100CE0008A69401502438A618A69024005924A690D
:100CF000000202434A6149690025014005910F2025
:100D0000009003200190092069460295C00600F07A
:100D1000B5F90E480E4C21C480202560606040006B
:100D2000A060256180006561E0600948083C00F032
:100D300045F9002801D0FFF717FE3463666206B05C
:100D400070BD000000240140001002400800024075
:100D5000F4050020F7B504460068002580684007C8
:100D60003DD426462036307D01280AD0012737752C
:100D7000607E012807D02046FFF70AFD050002D05B
:100D80002EE00220FEBDA06B16490840FF21013174
:100D90000843A0630020E0633075216B124888622D
:100DA000216B1248C862216B1148086321681C201E
:100DB0000860206841681022114341602068C168C2
:100DC0003943C1602168206B4031029B019A00F0D9
:100DD0001FF92068816804221143816000E0022528
:100DE0002846FEBDFEF1FFFFFF060008850700084C
:100DF0006B07000870B54379012B13D001254571AD
:100E00000223037106683468074B93409C430B68C8
:100E100049680B43934023433360057100214171BE
:100E2000084670BD022070BDFE0F000070B50400C2
:100E300004D020790025002802D005E0012070BDF3
:100E40006571204600F008F802202071256101201C
:100E50002071002070BD000010B586B0044614213A
:100E60006846FFF737FA10492068884219D10F48C1
:100E7000C26941040A43C261C2690A4005924269DB
:100E800009130A43426140690840059030200090F0
:100E9000032001900020029009206946C00600F05E
:100EA000EDF806B010BD00000074004000100240D4
:100EB00018B50468009400688018002904D0143024
:100EC00000900360002018BD0830F9E770B5427942
:100ED000012A12D00122427102230371046826689C
:100EE00015468D402E4326600029016807D00C6806
:100EF000A402240F0F2C0BD00DE0022070BD0B6854
:100F00009B061B0F0F2B06D14B6813434B6002E06F
:100F10004C681C434C60027100214171084670BD51
:100F2000F0B4C16B0D6801680C680422066C1346AE
:100F3000B3402B420DD063070BD50B689B0602D440
:100F40000B6893430B60016C8A40C16B4A60C16AB5
:100F500019E00227B74002462F4001232032002F1C
:100F600015D0A70713D50C68A40604D40C680A256D
:100F7000AC430C605370036C02219940C36B596001
:100F800000211170816A002916D0F0BC084708279B
:100F9000B7402F4210D024070ED50C680E25AC4365
:100FA0000C60046C1946A140C46B6160836353708C
:100FB00000211170016BE6E7F0BC704770B50400CA
:100FC00021D0022120462030054641702268116858
:100FD0000E48A3680140606826691843E3683343FC
:100FE000184363691843A3691843E3691843084326
:100FF00010602046FFF71AFC0021A16301206870F1
:101000002970084670BD012070BD00000FC0FFFFB1
:10101000F8B504468C46203001780025012909D016
:101020000126067041780027012905D007700225A6
:101030002846F8BD0220F8BD02214170A763206850
:10104000016849084900016061462046FFF700FC3D
:10105000E06A00282068016802D00E22114306E0F1
:101060000A22114301602068016804229143016053
:101070002068016831430160DAE70000FCB5002315
:101080000124A6E027462A469F403A4073D04D6887
:10109000012D05D0022D03D0112D01D0122D16D116
:1010A00085680326AC465D00AE46AE406546B54356
:1010B000AC46CE687546AE4065462E4386604668AF
:1010C0000D79BE43ED06ED0F9D4035434560C66882
:1010D0005F000325BD40AE46AE4335468E68BE4038
:1010E0002E43C6604E68022E01D0122E14D1DE08A7
:1010F000B60036180196366A5D07B446EE0E0F2527
:10110000B54000966646AE43B4460D69009EB540B4
:1011100066462E43019D2E6206687546AE430D79E4
:10112000AD07AD0FBD40354305604D68ED004FD5AF
:101130002B4DAE692643AE61AD699E08ED07ED0FFC
:101140000095284DB6007519AC46AD689E07360F60
:101150000F27B740BD430927FF06B84201D100273A
:1011600015E0214FB84201D1012710E01F4FB842CE
:1011700002D102270BE02BE01D4FB84201D103271B
:1011800005E01C4FB84201D1042700E00527B74015
:101190002F436546AF60184E35684F689543FF038F
:1011A00000D51543356075684F689543BF0300D57A
:1011B00015437560B5684F689543FF0200D5154328
:1011C000B560F5684F689543BF0200D51543F560DB
:1011D0005B1C0A681546DA4000D053E7FCBD0000EE
:1011E00000100240000001400004004800080048D0
:1011F000000C0048001000480004014001488068CD
:1012000070470000000000200248816802788918B9
:10121000816070470000002010B506480168102268
:1012200011430160002000F007F800F041F80020B1
:1012300010BD00000020024000B5014687B000222A
:101240000D2000F055F80D2000F046F81348826993
:10125000C1140A43826180690840059004A9684668
:1012600000F064F900F07EF90D49FEF7AFFF0E497A
:101270000C4A0A600D4A401ECA604860002008619E
:101280008860084600F0D2FB002802D0012007B099
:1012900000BD054800F0E5FBF9E700000010024042
:1012A00040420F00002C0140E0000020E703000056
:1012B00008B50848816901221143816181691140A3
:1012C0000091C26901040A43C261C06908400090EC
:1012D00008BD000000100240002805DBC106C90E51
:1012E00001208840014908607047000000E100E0EB
:1012F00010B501F0A7FF10BDF8B504460068434DD6
:10130000C00352D5E8690026C00007D4E969280463
:101310000143E961E9690140012600913C48016807
:10132000C90510D40168821511430160FFF766FFFB
:10133000074604E0FFF762FFC01B642824D8344846
:101340000068C005F6D5286A03273F02384020D040
:101350006168394081421CD0286A2A6AB843012159
:1013600009040A432A622A6A8A432A622862C00759
:101370000FD0FFF743FF009008E0FFF73FFF009911
:10138000411A2448814201D90320F8BD286A800708
:10139000F3D5286A6168B84308432862002E04D058
:1013A000E869012109078843E8612078C00705D072
:1013B000286BA16880088000084328632078800794
:1013C00006D5286B032109048843E1680843286394
:1013D0002078800605D5286B1021884321690843B1
:1013E00028632068800305D5286B80218843A16984
:1013F000084328632088400505D5286B4021884391
:101400006169084328630020F8BD00000010024015
:101410000070004088130000F8B50F4606005FD04A
:101420003D4D2868C007C00FB84209D2286840085F
:101430004000384328602868C007C00FB8424FD129
:101440003068364C81070CD5400704D56068072109
:101450000902084360606068F0218843B16808436E
:1014600060603078C0072CD07068012810D0022846
:1014700011D0032812D021688907002930DA616869
:101480008908890001436160FFF7B8FE009011E010
:1014900021688903F1E721688901EEE7616BC903DF
:1014A000EBE7FFF7ABFE0099411A1D48814201D9D5
:1014B0000320F8BD60680C210840716889008842EB
:1014C000EFD12868C007C00FB8420BD92868400880
:1014D0004000384328602868C007C00FB84201D0D8
:1014E0000120F8BD3078400706D560680721090261
:1014F0008843F1680843606000F044F86168094A75
:101500000906090F515CC840074908600020FFF731
:1015100093FE0020F8BD00000020024000100240B1
:10152000881300002A6200080C00002010B5072272
:1015300002600A4A53689B079B0F43605368F0247C
:1015400023408360526807231B021A40C26004488C
:101550000068C007C00F086010BD00000010024006
:10156000002002400448054900684968044A4905CA
:10157000490F515CC84070470C0000200010024029
:101580003A62000870B51CA20FCA88B06C460FC43E
:101590001DA30FCB0FC4204A51680C200B460340FB
:1015A0001E48042B06D085001D4E082B04D00C2BA2
:1015B0001FD0304608B070BD8B021B0F6C46E45C38
:1015C000D26A04AB1207120FC9039A5C890F022971
:1015D0000AD003290AD0002330460021FEF720FE5E
:1015E000214601F0FEFDE5E70023F6E7002328464B
:1015F000F3E72846DEE700000203040506070809B2
:101600000A0B0C0D0E0F101001020304050607084B
:10161000090A0B0C0D0E0F1000100240001BB70042
:1016200000127A00FEB5040070D02078F94EFA4D11
:10163000C00748D068680007800F01281FD068687D
:101640000007800F022804D16868C003800F0228B9
:1016500015D06168012919D001208004002901D02A
:10166000052917D02968B143296029688143296079
:10167000606800281BD0FFF7C1FD074613E028680B
:10168000800320D560680028CED01CE02868304355
:101690002860EDE7296801432960F7E7FFF7AEFD11
:1016A000C01B642870D828688003F7D50BE0FFF7CB
:1016B000A5FD074604E0FFF7A1FDC01B6428F1D893
:1016C00028688003F7D4207880073FD56868000732
:1016D000800F14D068680007800F022804D1686862
:1016E000C003800F01280AD0E068002828681ED0B7
:1016F000012108432860FFF781FD07460CE02868B8
:1017000080070CD5E068012800D108E080E1FFF7F0
:1017100075FDC01B0228C5D828688007F7D5286842
:10172000F82188432169C900084328600EE0400879
:1017300040002860FFF762FD074604E0FFF75EFD0A
:10174000C01B0228AED828688007F7D4207800078D
:1017500023D5E0690028686A0FD001210843686238
:10176000FFF74CFD074604E0FFF748FDC01B0228C9
:1017700098D8686A8007F7D50FE040084000686293
:10178000FFF73CFD074605E0C3E0FFF737FDC01B50
:10179000022887D8686A8007F7D420780427400792
:1017A000002861DA00200190E869C00008D4E969E6
:1017B000B8060143E961E969014001200091019007
:1017C00096480168C90511D401688215114301606A
:1017D000FFF714FD009005E0FFF710FD0099401A97
:1017E000642898D88D480068C005F5D5A068012800
:1017F0000AD0002801D0052811D0286A40084000EE
:101800002862286AB84302E0286A01210843286256
:10181000A068002812D0FFF7F1FC00900AE0286AC7
:1018200038432862F0E7FFF7E9FC0099411A7C4849
:1018300081426ED8286A8007F5D50DE0FFF7DEFCFF
:10184000009006E0FFF7DAFC0099411A74488142E3
:101850005FD8286A8007F5D40198002804D0E96988
:10186000012000078143E9612078C00635D5606911
:1018700001280CD0401D686B24D038436863686B26
:10188000400840006863FFF7B9FC074622E0686B38
:1018900038436863686B012108436863FFF7AEFC57
:1018A000074604E0FFF7AAFCC01B022831D8686B8A
:1018B0008007F7D5686BF8218843A169C900084300
:1018C00068630AE0B8436863F4E7FFF797FCC01B5E
:1018D00002281ED8686B8007F7D42078800637D599
:1018E00068680007800F032814D068680007800F1D
:1018F000022804D16868C003800F03280AD0206A38
:101900000028686B16D030436863FFF777FC064603
:101910000CE062E0686BC0031AD5206A012877D119
:1019200016E0FFF76BFC801B022856D8686BC003DB
:10193000F7D50DE0B0436863FFF760FC064604E0AE
:10194000FFF75CFC801B022847D8686BC003F7D404
:10195000606A002866D069680907890F022942D0A9
:10196000012636060228286805D0B0432860FFF714
:1019700045FC044633E0B0432860FFF73FFC0746D0
:1019800004E0FFF73BFCC01B022826D82868800132
:10199000F7D4E86A216B000900010843E862A16AF4
:1019A000E06A084369687B22D20391430843686078
:1019B000286830432860FFF721FC044604E0FFF765
:1019C0001DFC001B022808D828688001F7D529E0F3
:1019D000FFF714FC001B022801D90320FEBD286874
:1019E0008001F5D41EE00128F8D06868E96A032276
:1019F000D203A36A02409A420AD10907226B090F57
:101A0000914205D10F2189040840E16A884209D03A
:101A10000120FEBD000001000010024000700040E7
:101A2000881300000020F4E77047704770B5040089
:101A300005D025462035687F002802D006E0012029
:101A400070BD00202877204600F00AF80220687751
:101A5000211D206801F0C2F901206877002070BDC7
:101A600070470268D36801210B43D3600068826825
:101A70005207520F062A02D002680A430260002071
:101A80007047704770B50446006801690025C94376
:101A90008907002915DBC168C943890711D4E91EEC
:101AA000016101202077206880698007204602D0EC
:101AB000FFF7E7FF04E000F096F8204600F094F806
:101AC000257720680169C943490717D4C168C9430C
:101AD000490713D40421C9430161022020772068FB
:101AE00080698005800F204602D0FFF7CAFF04E01E
:101AF00000F079F8204600F077F825772068016932
:101B0000C943090716D4C168C943090712D408217B
:101B1000C9430161042020772068C06980072046FE
:101B200002D0FFF7AEFF04E000F05DF8204600F0C1
:101B30005BF8257720680169C943C90617D4C168D5
:101B4000C943C90613D41021C94301610820207775
:101B50002068C0698005800F204602D0FFF791FF02
:101B600004E000F040F8204600F03EF825772068B9
:101B70000169C943C90708D1C168C943C90704D16C
:101B8000891E0161204600F031F820680169C943CF
:101B9000090609D4C168C943090605D48021C9438F
:101BA00001612046FFF740FF20680169C9434906EB
:101BB00009D4C168C943490605D44021C94301611C
:101BC000204600F01DF820680169C943890609D440
:101BD000C168C943890605D42021C9430161204653
:101BE000FFF723FF70BD70477047000010B5006815
:101BF0000249884201D1FFF707FB10BD002C0140CC
:101C0000704710B5040003D0606F002802D007E0D1
:101C1000012010BD002170200155204600F026F85B
:101C20002420606720680168490849000160204657
:101C300001F0B4F90128ECD0606A002802D02046F7
:101C400001F016F9206841680922D20291434160EF
:101C5000206881682A2291438160206801680122FE
:101C600011430160204601F069F910BD10B586B03E
:101C7000044614216846FEF72DFB1349206888426C
:101C80001FD112488269012189030A438261826956
:101C90000A4005924269C9000A434261406908400E
:101CA0000590032040020090022001900020029045
:101CB000032003900120049009206946C006FFF725
:101CC000DDF906B010BD00000038014000100240F0
:101CD000FFB50446406F83B017460D4620285CD1FF
:101CE000002D0AD0002F08D0A168C001814207D181
:101CF0002069002804D1E80702D0012007B0F0BD18
:101D0000204660300290007C012846D002980121D4
:101D100001740020E06721206067FFF76FFA264614
:101D200040360190378277820120A168000381420A
:101D300002D12069002802D02F46002511E000279B
:101D40000FE000228021204601F0E6F9002815D19D
:101D5000002F15D02168387808857F1C708A401EB6
:101D60007082708A019B002806980090E9D10022B9
:101D70004021204601F0D0F9002808D00320BDE71B
:101D800028882168C005C00D0885AD1CE6E7202025
:101D90006067029900200874B0E70220AEE70000F7
:101DA0001CB5FFF739FA00F09DFF00F0B3FB0024EB
:101DB0001F4900941D48019408600846FFF736F853
:101DC000022001900022694600941948FFF712F89A
:101DD000102269461648FFF70DF800211448FFF756
:101DE00075F800231A4619461148FFF761F81021CB
:101DF0000F48FFF76BF800231A4610210C48FFF735
:101E000057F80C4841690122114341614069104073
:101E10000022009011460920FFF76AFA0920FFF717
:101E20005BFA00F03BFB00F01FFC1CBD007400409F
:101E3000600500200010024018B50C2423460F4A0C
:101E40000F210020009400F0A4FD0C4A0C2318324E
:101E50001B210020009400F09CFD084A0C23303A1E
:101E600028210020009400F094FD044A0C23183A25
:101E700034210020009400F08CFD18BD7C76000811
:101E80007CB508207D244501E40000902B4600220B
:101E90001849019418A003F034FB002801D003F086
:101EA000CDFC092000902B4600221549019415A075
:101EB00003F027FB002801D003F0C0FC0A200090AB
:101EC0002B4600221249019412A003F01AFB0028AD
:101ED00001D003F0B3FC0B20012300905B02002231
:101EE0000F4901940FA003F00CFB002801D003F070
:101EF000A5FC7CBD2D1F000854445F464200000035
:101F00004922000854445F5370696E626F78000084
:101F1000A521000854445F53657474696E677300AB
:101F20001920000854445F47554900002E48FEF729
:101F30001CFD002802D02DA002F018FD314D2C46CA
:101F40002C3C04222F492848FEF704FF0A2003F006
:101F5000E7FB6988206908182061A98862698F18E1
:101F60006761E988A2698E18A6616178491CC9B2C7
:101F70006170142929D3FEF7FBFA234A234BFEF79D
:101F800055FAFEF703FB60813846FEF7F1FA1E4A68
:101F90001F4BFEF74BFAFEF7F9FAA08114213046E9
:101FA000FEF714F901210903081A0F210902484319
:101FB000000C2081372803D90020A0800120207048
:101FC000002020616061A06160702888FEF7D0FA6F
:101FD0000022104BFEF7C2F90B22D243FEF79EFA05
:101FE000FEF7D4FAE080ACE7200500204144435FCF
:101FF00043616C6962726174696F6E5F4572726F82
:1020000072210A003C000020295C8FC2F5C83840CC
:10201000F5483D40004042400EB5002700F06EFB01
:1020200001240C25062353A2162178200095019443
:1020300000F006FD062350A233217820009501947C
:1020400000F0FEFC06234DA20F211C2000950194F8
:1020500000F0F6FC0021062349A2084600950194F1
:1020600000F0EEFC062343A20021432000950194DA
:1020700000F0E6FC062340A20021782000950194A0
:1020800000F0DEFC062340A228210F2000950194D9
:1020900000F0D6FC06233DA234210F2000950194C8
:1020A00000F0CEFCFFF7C8FEFF20913003F038FBB4
:1020B000374800F036FD3648083000F032FD002F7A
:1020C0002BD00027324E02201C3E3946305600F0FD
:1020D0009AFD0121708900F0DEFC0021B08900F03A
:1020E000DAFC06200090019502940F210223F28869
:1020F000084600F009FC0620009001950294022396
:1021000032891B210F2000F0FFFBB08800950028CA
:10211000019404D006231FA203E00127D2E706237F
:102120001AA234210F2000F08BFC1949002008313D
:10213000085EFEF709FA184A184BFEF70FF9064633
:10214000134800911C388089FEF712FA3246009B32
:10215000FEF73AFA0095019402D8062310A201E096
:10216000062309A228210F2000F06AFC00F048FB9A
:102170009AE70000560000004100000076000000D1
:102180005345543A00000000435600004F464600B5
:102190002C0000204F4E20005C8FC2F5285CEF3FE2
:1021A00043430000224D234E234F2C461C3C32203B
:1021B00003F0B6FA20780028F9D00020285EFEF758
:1021C000C3F932463B46FEF7C9F8FEF7DFF903468E
:1021D000002211461948FEF76BFE15490020083110
:1021E000085EFEF7B1F9164A164BFEF7B7F8FEF790
:1021F000CDF90346002210211048FEF759FEA088B1
:1022000000280BD00020285EFEF79EF932463B46A0
:10221000FEF7A4F8FEF7BAF9034600E00023002217
:1022200011460648FEF744FE00202070BFE700007C
:102230002C0000200C022B8716D9F33F60050020EC
:10224000713D0AD7A370F73F03F0DAFF03F0C4FF34
:102250001D4D00272E4608362C461C3C322003F02C
:102260005FFAE0890028F9D002202056032814DD07
:10227000001FC1B20A2001F095FFE1894843298877
:10228000401800B228806988884200DD298000203B
:10229000285E002814DC2F8012E0C1B20A2001F071
:1022A00081FFE18948433188401800B2308071884D
:1022B000884200DD31800020305E002800DC37805D
:1022C00001202070E781C9E72C00002008B50449EF
:1022D0004A6902434A6149690140009108BD000012
:1022E0000010024010B50479002325490268002C33
:1022F0003DD0002A42D04479002C0FD0012C15D0BB
:10230000022C16D001238279002A37D0012A18D056
:10231000022A1FD0032A21D001232FE04C689443C6
:102320004C6002680C6814430C60ECE70C68944342
:1023300001E00C6814430C6002684C6814434C6064
:10234000E1E70268CC689443CC6000688A68024385
:102350008A6013E002688C68944302E002688C682B
:1023600014438C600068CA680243CA6006E00C68C7
:1023700094430C6000684A6882434A60184610BD66
:102380000004014003494969884301D00020704797
:102390000120704700040140F0B500244DE0012306
:1023A000A3401A4048D04B68012B01D0022B10D11A
:1023B0008E688568134653435F00DF19BD4373433E
:1023C0001D438560CD680B6846689E436B431E4382
:1023D00046600F69C668134653435D005D19AE43FE
:1023E0005F433E43C6604E68022E1FD1FF2A0ED8BF
:1023F00017464A69066A94461A467A437A43170191
:10240000BF1ABE4367467A43164306620EE0160AB9
:10241000324672434F6972437243BC461601B71A83
:10242000466ABE4367467A43164346624A68066870
:102430005343AE431E430660641C0A681346E340E0
:10244000ADD10020F0BD0069814301D0002070476C
:102450000120704710B5036849434C000C19A34391
:1024600051430B43036010BD10B5C36849434C0092
:102470000C19A34351430B43C36010BD0A06930DCF
:10248000054A10B59B189A68090C0F248C40A2438A
:10249000884002439A6010BD000001403EB5002410
:1024A0001A491B4800940194029412C0046001254B
:1024B000856004214460C160047444748474C474ED
:1024C000FF21C23184614161014618310C710562FE
:1024D0000838FEF73DFB2803019006200290009487
:1024E00069460B48FEF79AFA694609480095FEF7D7
:1024F00095FA0220009069460548FEF78FFA0320FE
:10250000009069460248FEF789FA3EBD002401406A
:1025100020050020F0B589B00024069418216846F3
:102520000794FDF7D7FE01208005FFF7CFFE0120BD
:102530004004FFF7CBFE01208004FFF7C7FE474EA3
:102540000420B0620002B0624000B0624000B0629D
:1025500043490020FFF792FF42490020FFF78EFF1A
:1025600000210120FFF78AFF0925ED060122402105
:102570002846FFF779FF012280212846FFF774FFE4
:10258000012211463046FFF76FFF00224021284606
:10259000FFF760FF002280212846FFF75BFF002243
:1025A00001213046FFF756FF40200690012568467E
:1025B000057744770227877706A8FFF793FE8020E8
:1025C0000690684605774477877706A8FFF78AFE66
:1025D0006846069505774477857706A8FFF782FE5B
:1025E00069463046009704950194FFF7D5FE042014
:1025F000032703946A460494A1C269463046FFF754
:10260000CBFEA80203946A460494A1C269463046F0
:10261000FFF7C2FEE80203946A460494A1C2694629
:102620003046FFF7B9FE28030090029403946946F0
:10263000019504943046FFF7AFFE0221052000F01B
:1026400023FE052000F0F2FD0221072000F01CFE11
:10265000072000F0EBFD09B0F0BD000000040048C9
:102660000100080001000C0010B50A48084901608B
:10267000E1214902416000218160C1600161816105
:10268000C1610C22016242614162FFF7BAFA10BDDA
:1026900000380140740500207047000010B500218B
:1026A000074B0A460020C400E418401CC0B2625424
:1026B0008028F8D3491CC9B20829F3D310BD000003
:1026C0002001002010B57F2814D83F2912D8CB084C
:1026D0000724E31A2140641A0121A140064CC000DE
:1026E0000019DBB2002AC25CC9B201D00A4300E083
:1026F0008A43C25410BD00002001002070B501259E
:102700003E4C2D03A561642003F00AF8A562C820A1
:1027100003F006F8A5610021AE2000F0BBFA00210D
:10272000084600F0B7FA0021102000F0B3FA0021AB
:10273000402000F0AFFA0021812000F0ABFA002128
:10274000CF2000F0A7FA0021A12000F0A3FA002179
:10275000C02000F09FFA0021A62000F09BFA002183
:10276000A82000F097FA00213F2000F093FA002102
:102770003F2000F08FFA0021084600F08BFA00217C
:10278000D52000F087FA0021802000F083FA002194
:10279000D92000F07FFA0021F12000F07BFA00211F
:1027A000DA2000F077FA0021122000F073FA0021FD
:1027B000DB2000F06FFA0021402000F06BFA0021CE
:1027C000202000F067FA0021022000F063FA0021C7
:1027D0008D2000F05FFA0021142000F05BFA002148
:1027E000A42000F057FA0021A62000F053FA00219F
:1027F000AF2000F04FFAFFF751FF70BD0004004812
:1028000070B5104E00242046B030C0B2002100F058
:1028100041FA0021022000F03DFA0021102000F0D2
:1028200039FA0025E8008019005D012100F032FA34
:102830006D1CEDB2802DF5D3641CE4B2082CE2D3FC
:1028400070BD000020010020FFB586B00F9E0C4631
:10285000F0080491710700D00121401809994843FC
:10286000C0B2203A0190D0B2089000203FE0099811
:1028700006280FD00C283ED1182E3CD108982421D0
:1028800048431E494118009800270D5C28060FD5C3
:10289000109A11E0082E06D00C2E2CD108980C218D
:1028A00048431749EEE70898062148431549E9E7E8
:1028B0001098002812D0002221460698FFF702FF48
:1028C0006806050E641C0498E4B2201AB04207D1D1
:1028D0000698049C401CC0B2069005E00122EBE77C
:1028E0007F1CFFB2082FD1D30098401CC0B20199C1
:1028F00000908842BBD30AB0F0BD0000F068000829
:102900007C64000842620008FFB5002683B01D46C3
:102910003446012732E0281B401EC1B20A2001F0D4
:1029200041FC01460598FDF751FC0A21FDF74EFCDC
:10293000002E05D1681E844202DA00290CD001263F
:102940000D9830310090CAB20C980399604340183A
:102950000197C0B20C9B0CE00E98019700280D98CF
:1029600000900C980ED00399604340180C9BC0B2A5
:1029700020220499FFF768FF641CE4B2AC42CAD37A
:1029800007B0F0BD039960434018C0B230220C9BE1
:10299000EFE7FFB589B012980D46089109990293A7
:1029A000C918802903D98021C91AC9B202912918EE
:1029B0000446402902D94021091ACCB2C108400777
:1029C00000D0012008180490E008610700D0012120
:1029D0004018039000202DE0002625E0049948438C
:1029E0000B998919475C00200690380601D5012211
:1029F00000E0002229460998FFF764FE7806070EDA
:102A00006D1C0898EDB2281AA04205D10998089DBE
:102A1000401CC0B2099005E00698401CC0B2069068
:102A20000828E2D3761CF6B2039886420098D5D3E4
:102A3000401CC0B2029900908842CDD30DB0F0BDC9
:102A4000FFB582B016460D4604460B9F1DE0059863
:102A50008021081AA04202DA0024E819C5B24020F9
:102A6000C01BA84203DA00242546FFF717FE0C9886
:102A700000970190327829462046059BFFF7E4FE37
:102A800005982018401CC4B2761C307820385E2887
:102A9000DDD906B0F0BDF0B50027012618240C25BD
:102AA00085B000291CD06421FDF790FB02460391FC
:102AB00002230296009501940C213320FFF724FF96
:102AC0000C232E2219464D2001960094FFF7BCFEE0
:102AD00002230C210297009501945920039A1CE0CF
:102AE0007D21C900FDF772FB024603910123029686
:102AF0000095019428213320FFF706FF0C232E2296
:102B00002821402001960094FFF79EFE03230297A0
:102B10000095019428214D20039AFFF7F5FE05B09A
:102B2000F0BDF0B50446817985B00A2001F03AFB8A
:102B30000022A25E01461046FDF748FB80B20390DA
:102B4000A1790A2001F02EFB0022A25E0146104668
:102B5000FDF73CFB8FB2E1790C250620002924D03B
:102B60000026694661C12079A179039A401AC3B24F
:102B700031462020FFF7C8FE012000950190207902
:102B8000A1790623401AC100081A2030C0B22E22B3
:102B90000021FFF759FE0620694661C12079A3791B
:102BA000C01AC100081A273026E0012101950291C0
:102BB000009006462079A179039A401AC3B20021F9
:102BC0005520FFF7A1FE0120009501902079A17901
:102BD0000623401AC100081A5530C0B22E22002127
:102BE000FFF732FE00200096019502902079A3792C
:102BF000C01AC100081A5C30C0B23A460021FFF783
:102C000083FE05B0F0BD1CB5002918D001210C22AF
:102C1000030000F0FEFA08050C151C232A313814B5
:102C2000009201910623202200216F2005E00092EE
:102C300001910623202200216920FFF705FE1CBD1B
:102C4000009201910623202200216320F5E70092E3
:102C500001910623202200215520EEE700920191E8
:102C60000623202200213B20E7E700920191062362
:102C7000202200213520E0E7009201910623202246
:102C800000212620D9E7009220220623019100216D
:102C90001046D2E730B50123DB020D4A002901D0EE
:102CA000936100E09362002401218902916205068C
:102CB00002D50425956101E00425956291614006E5
:102CC000641C000EE4B2082CF0D3936130BD000008
:102CD0000004004810B501F02BFE02F0F5FE01F0F3
:102CE00039FE10BD70B598B034216846FDF7F2FA90
:102CF00000240D940E940F941C2111A81094FDF73C
:102D0000E9FA012511200595009001951020069003
:102D100000030A90C00002260B9009960C946846A6
:102D2000FEF780FC07200D900F9401210E96109461
:102D30000DA8FEF771FB11A811951394FEF7DCFAAC
:102D400018B070BDF8B5184E71680C2001401748D6
:102D5000174C03D004290BD008290BD020607068D1
:102D600014490006000F085C2168C1402160F8BDCD
:102D70001148F3E7716872680323DB031A40890284
:102D80000D0FF16A01270907090F3F04491CAD1C0B
:102D9000BA4201D1084802E09A4200D10748FDF743
:102DA00015FA6843DAE700000010024000127A00CA
:102DB0000C0000202A620008001BB700006CDC0237
:102DC0007047000010B501F0B3FD0348FEF75AFE4E
:102DD00001F0C0FD10BD0000E0000020F0B5026869
:102DE0001D4B0124A4071D4D984203D0A04201D0E1
:102DF000A84203D17026B2434E683243184E194F91
:102E000098420DD0A0420BD0A84209D0164CA04247
:102E100006D0B04204D0B84202D0144CA04204D133
:102E200003242402A243CC6822438024A2434C6999
:102E3000224302608A68C2620A688262984206D0AF
:102E4000B04204D0B84202D0084A904201D1096988
:102E5000016301214161F0BD002C014000040040EC
:102E60000040014000440140002000400048014073
:102E700010B5818CC90707D001684A6801235B043B
:102E80009A43836A1A434A60818C890707D501688F
:102E90004A6801231B049A43C36A1A434A60818C1F
:102EA000490707D501684A6801239B049A43036BCD
:102EB0001A434A60818C090707D501684A680123D3
:102EC000DB039A43436B1A434A60818CC90607D5DA
:102ED0000268916801231B039943836B1943916036
:102EE000818C890607D501688A6801235B039A43B0
:102EF000C36B1A438A60818C490612D503685A68ED
:102F000001210905046C8A4322435A60026C8A42FB
:102F100007D10268516803235B059943436C194349
:102F20005160818C090607D501684A680123DB04DA
:102F3000806C9A4302434A6010BD0000F8B5002639
:102F40000446C667FEF75AF9054620680068124F26
:102F5000000709D501212B4600224905204600978C
:102F600000F0DAF800280DD12068006840070BD582
:102F700001212B46002289052046009700F0CCF85D
:102F8000002801D00320F8BD20206067A0676034CE
:102F900026740020F8BD0000FFFFFF0170B5044655
:102FA00080682169E269084361690025114322684C
:102FB000084311684F4B194001431160216848686C
:102FC000032212039043E26810434860A169206A1B
:102FD0002268084391680B231B02994301439160C7
:102FE000454B012220684549120498420AD1086BDA
:102FF0008007800F23D0012814D0022814D0032882
:103000001CD10DE03E4B984210D1086B03210904FE
:10301000084014D0801A05D0801A05D090420DD1F6
:1030200002200CE004200AE0082008E0354988422C
:1030300002D03549884201D1002000E01020012350
:10304000E169DB03314E994229D1002806D00228DC
:1030500007D004281AD0082845D11DE0FEF782FACF
:1030600016E061682A4A48088018FDF7AFF880B278
:1030700001461039B14236D824490246491C0A405B
:103080000007410F20681143C1602DE0FEF77AFA76
:10309000616840004A08E7E761684808E4E70028FB
:1030A00006D0022807D0042813D008281BD116E028
:1030B000FEF758FA0FE06168164A48088018FDF7D5
:1030C00085F880B201461039B1420CD82168C86039
:1030D0000AE0FEF757FA61684A081018EFE76168DE
:1030E0004808C018EBE701250020206660662846E6
:1030F00070BD0000F369FFEF00380140001002408E
:103100000044004000480040004C0040EFFF000039
:103110000024F40000127A00FFB581B005460F4686
:10312000044660350A9E38E0701C36D0FEF766F81B
:103130000499401AB04221D8002E1FD0206801689F
:1031400049072AD5C069C043000526D4012021685B
:10315000C002086220680168FF22A1329143016029
:103160002068816849084900816020206067A06765
:10317000E06700202874032005B0F0BD20680168D6
:10318000FF22A1329143016020688168490849000B
:10319000816020206067A067EBE72068C16938463E
:1031A000884305D0002103988142BDD00020E3E789
:1031B0000121F8E72021020C01D010211046020A5B
:1031C00001D010460839020901D01046091F8208B3
:1031D00001D01046891E420801D0881E7047081A87
:1031E0007047F8B5040C8BB2264682B25E430D0CD4
:1031F0001046370C58433604801900217941164691
:103200006E43370C36048019794126466E4389197E
:10321000F8BD30B47446641E2578641CAB4200D2FD
:103220001D46635D5B00E31830BC1847002805DBD2
:10323000C106C90E0120884001490860704700009E
:1032400000E100E08307FF22DB0E9A408907090EA8
:103250009940002808DB830809489B001B18186860
:1032600090430843186070470007000F0838830830
:1032700004489B001B18D86990430843D8617047E5
:1032800000E400E000ED00E08307FF22DB0E9A403F
:103290008907090E9940002808DB830809489B002C
:1032A0001B18186890430843186070470007000F08
:1032B0000838830804489B001B18D86990430843CA
:1032C000D861704700E400E000ED00E0002806D07F
:1032D00002060D49120E03D0C0B2085C401C7047B4
:1032E0000204120E04D00004000E085C093070477E
:1032F0000202120E04D00002000E085C113070476A
:10330000000E085C193070472078000802E008C8F9
:10331000121F08C1002AFAD170477047002001E04F
:1033200001C1121F002AFBD1704700000348016849
:10333000814201D00120704700207047C00000206A
:10334000F7B500248AB017460646002805D1FF22AB
:103350003732274927A001F07BF8002F07D1FF2241
:103360003832234924A001F073F800E0641C305D7A
:10337000202804D0092802D00B988442F6D3002CD0
:1033800032D01F480568A01D089014E006221DA138
:103390002868FCF7D3FF00280CD128682246314664
:1033A000801DFCF7CBFF002804D129680898085C31
:1033B000002805D00835154800688542E6D313E09B
:1033C0006C68002C10D020216846FCF783FF6A4609
:1033D00030460B9900F07EFE002805D06946A047D4
:1033E000386000200DB0F0BD0020C043FAE70000B7
:1033F00088770008636D64007265747000000000D7
:10340000440000205F5F636D645F0000480000209F
:1034100010B5040004D14B22104911A001F018F896
:10342000A06A0178232906D1E169814203D9E26AC1
:1034300082188A420AD221460EA001F097FA00F0C3
:10344000F7FBFCF757FE0028FDD110BD203081426C
:10345000FBD821460EA001F089FA10BD077A0008BA
:1034600074687265616420213D2052545F4E554C52
:103470004C0000007468726561643A2573207374AF
:1034800061636B206F766572666C6F770A0000006F
:103490007761726E696E673A202573207374616379
:1034A0006B20697320636C6F736520746F20746880
:1034B0006520626F74746F6D206F66207374616332
:1034C0006B20616464726573732E0A00FEB5194641
:1034D00004461430099F0A9E0B9D089B40600060C3
:1034E000E762A3622262616218463A46232101F034
:1034F00092FBE16AA06A134B4218121F616A206AAC
:1035000001F0FAF9E061202E04D396220E490FA0B3
:1035100000F09EFF214620318E754E750020E56338
:10352000A0632564206308752067606700900190A0
:10353000234620460E4A1946443002F0CFFB0020B5
:10354000FEBD000045550008557A00087072696F8D
:1035500072697479203C2052545F5448524541446A
:103560005F5052494F524954595F4D415800000035
:103570007D59000810B5029C640864004472026220
:10358000C16100214362816214304060006010BD5F
:10359000143006C808384A6006C808381160406010
:1035A0000060704710B500F06FFA002010BD10B534
:1035B00000F03EFB002010BD18214843401EFDD204
:1035C0007047000010B511484169203149788907DA
:1035D00003D40F490020087015E00169002904D0C8
:1035E00080220B48FCF78DFE0DE000F071FD0028F5
:1035F00001D008A100E009A10548FCF796FE09A149
:103600000348FCF772FE024810BD00004400002091
:10361000380600206D7368200000000066696E7334
:10362000682000003E00000070B50A4C0546606945
:10363000002804D1A322084908A000F009FF61690D
:10364000FD22203148781040EA07920F104348705D
:1036500070BD000044000020C27600087368656CED
:103660006C20213D2052545F4E554C4C0000000010
:10367000014A03C270470000440000207CB517498E
:103680001748FFF7F5FF7821012000F015FF154CD2
:10369000002860611BD00A211520012301910090B0
:1036A0009B020022104911A001F02BFF05460023C8
:1036B0001A4610A1606901F0B7FC0120FFF7B4FFC2
:1036C000002D02D0284602F0B9F800207CBD0BA0E6
:1036D00001F04CF90020C0437CBD0000B07D000823
:1036E000407D0008440000201537000874736865A9
:1036F0006C6C000073687278000000006E6F206DC3
:10370000656D6F727920666F72207368656C6C0AE4
:1037100000000000924D0126686920304178314355
:103720004170FFF74FFF01F021F9002701F02CF85D
:103730000400FBD468691B2C07D0014620310A78AD
:10374000012A05D0022A0AD012E020300670EDE7E7
:103750005B2C01D00F700BE002200870E6E70F70C1
:10376000412CE3D0422CE1D0442C36D0432C40D025
:10377000002CDBD0FF2CD9D0092C4CD07F2C73D05F
:10378000082C71D00D2C6ED00A2CFCD00146403193
:103790004A8E502A00D34F868B8E498E8B427DD223
:1037A000CA1A0146223123305918181801F01CFAA0
:1037B00068697421095A22300C5468692121095C16
:1037C000C90706D07421095A2230091865A001F0F2
:1037D000CDF868694030848EA3E04030808E0028A8
:1037E000A4D061A001F0C2F869694031888E401E02
:1037F00036E0014640310A46898E528E914295D27A
:103800002230095C59A001F0B1F868694030818E1E
:10381000491C81868AE7002403E053A001F0A6F842
:10382000641C68694030808EA042F6DC6C6950A050
:10383000223401F09BF800F04BFC012802D1204615
:1038400000F082FBFFF7BEFE0146224649A001F0D0
:103850008DF868692230FCF761FD6969403148865E
:10386000888663E700E03AE0014640318B8E002B0A
:10387000D0D04A8E5B1E521E92B29BB24A868B8675
:103880009A4223D91D392230D21A5918181801F03A
:10389000ABF968697221095A223000E047E00F5401
:1038A00068697421095A2230091834A001F05EF8C1
:1038B00068694030848E03E02BA001F057F8641C47
:1038C00068694030408EA042A4DBF5E72DA001F0EE
:1038D0004DF868697221095A22300F5426E700F02A
:1038E000F7FB01280DD1686920304078C00702D06D
:1038F0001FA001F03BF868697221095A223000F0DC
:103900007BFBFFF75FFE01F031F868695021223040
:10391000FCF7E0FC686940301FE013A001F026F8D6
:10392000641C68694030408EA042F6DC0AE0223018
:103930000C54686920304078C00703D021460BA0A2
:1039400001F014F868694030418E491C89B2418603
:10395000828E521C82865029C0D347868786E5E630
:1039600044000020257300000800000025630000CB
:103970000A0000002573257300000000082573204D
:10398000200800000820080010B502A000F0EEFF9B
:10399000002010BD48656C6C6F2052542D54687225
:1039A000656164210A00000070B50CA000F0DEFF24
:1039B0000F48104D04680BE002220FA12068FCF7AD
:1039C000BDFC002803D00DA0216800F0CFFF083413
:1039D00028688442F0D3002070BD00002D2D46756C
:1039E0006E6374696F6E204C6973743A0A0000004C
:1039F00044000020480000205F5F000025730A009B
:103A0000F8B504461E4617460D46084601F0D8F99B
:103A1000001D2060257267600020E6602061F8BD0F
:103A2000F8B50D4600212961E968002914D0297AEA
:103A3000002911D02E68002810D00446FCF75AFB4C
:103A4000014620460C38007A2A7A4006400E904201
:103A500008D00846FCF752FB0020F8BD3446FCF7BE
:103A600049FB0146686800272468B44201D100245C
:103A700004E010C0EA687F1CBA42F5D10846FCF7A2
:103A80003DFB20462F61F8BD10B5074C07A0E1684B
:103A900000F06CFF0AA0216900F068FF0DA06169C9
:103AA00000F064FF10BD00006C000020746F7461B2
:103AB0006C206D656D6F72793A2025640A000000F4
:103AC00075736564206D656D6F7279203A20256489
:103AD0000A0000006D6178696D756D20616C6C6F16
:103AE0006361746564206D656D6F72793A20256439
:103AF0000A000000F0B591B0002633A4082308AAFC
:103B0000022102A8FFF77CFF082001460790224609
:103B100030A000F02BFF079800F04EFB34A000F01F
:103B200025FF02A93046FFF77BFF0646002542E04D
:103B3000A80008A90C580C3CFCF7DCFA217A6A466C
:103B40004906127C490E914202D0FCF7D7FA31E0C7
:103B5000FCF7D4FA274660691437B84238461ED0BD
:103B600000F032FFA18B009101902346082226A08D
:103B7000079900F0FBFE3C680BE02146143926A0B3
:103B800000F0F4FE2068B84202D024A000F0EEFE5F
:103B90002468BC42F1D115A000F0E8FE0AE000F074
:103BA00013FFA18B00910190234608221CA00799C6
:103BB00000F0DCFE6D1C0698A842B9DC002EB0D1E6
:103BC000002011B0F0BD000073656D6170686F7208
:103BD00065000000252D2A2E732076202020737585
:103BE0007370656E64207468726561640A00000019
:103BF000202D2D2D202D2D2D2D2D2D2D2D2D2D2D0F
:103C00002D2D2D0A00000000252D2A2E2A73202597
:103C10003033642025643A00257300002F00000033
:103C2000252D2A2E2A7320253033642025640A008E
:103C3000F0B5AFB000263FA4082327AA012102A8AF
:103C4000FFF7DEFE08200146089022463B4800F0C0
:103C50008DFE089800F0B0FA39A000F087FE02A9A6
:103C60003046FFF7DDFE064600255AE0A80027A9EA
:103C70000C580C3CFCF73EFA0746207A6946400691
:103C8000097C400E884203D03846FCF737FA47E0FB
:103C90007822214609A8FCF704FB3846FCF72EFAE7
:103CA00027462037787D00902346082234A00899C3
:103CB00000F05CFE387D0007000F012808D00228C4
:103CC00008D0002808D0042808D0032808D00AE02B
:103CD0002EA006E030A004E032A002E034A000E014
:103CE00036A000F043FEA06A074600E0401C0178C1
:103CF0002329FBD0E16AC01B081A079164214843BD
:103D00000799FCF763FA0346216B206C0191009040
:103D1000E0690799381A41182BA0079A00F026FE8F
:103D20006D1C0698A842A1DC002E98D100202FB06F
:103D3000F0BD000074687265616400006C7B00086F
:103D4000202D2D2D20202D2D2D2D2D2D2D202D2DD7
:103D50002D2D2D2D2D2D2D2D202D2D2D2D2D2D2DA0
:103D60002D2D2D20202D2D2D2D2D2D20202D2D2DB7
:103D70002D2D2D2D2D2D2D202D2D2D0A0000000057
:103D8000252D2A2E2A732025336420002072656198
:103D900064792020000000002073757370656E64E4
:103DA0000000000020696E697420202000000000DF
:103DB00020636C6F73652020000000002072756E18
:103DC0006E696E670000000020307825303878205A
:103DD0003078253038782020202025303264252581
:103DE00020202030782530387820253033640A00B0
:103DF000F0B58FB0002626A4082307AA0A2102A83E
:103E0000FFF7FEFD08272246394623A000F0AEFD4D
:103E1000384600F0D1F92AA000F0A8FD02A93046EA
:103E2000FFF7FEFD0646002524E0A80007A90C5870
:103E30000C3CFCF75FF9217A6A464906127C490E70
:103E4000914202D0FCF75AF913E0FCF757F9A16A46
:103E5000606A0191009023460822394621A000F0B3
:103E600085FD607AC00701D024A000E026A000F004
:103E70007DFD6D1C0698A842D7DC002ECED101F046
:103E80001DFE014624A000F071FD00200FB0F0BD22
:103E900074696D6572000000252D2A2E7320207034
:103EA0006572696F64696320202074696D656F7540
:103EB0007420202020202020666C61670A0000000A
:103EC000202D2D2D2D2D2D2D2D2D2D202D2D2D2D3C
:103ED0002D2D2D2D2D2D202D2D2D2D2D2D2D2D2D1F
:103EE0002D2D0A00252D2A2E2A73203078253038D2
:103EF00078203078253038782000000061637469BC
:103F000076617465640A0000646561637469766152
:103F10007465640A0000000063757272656E742037
:103F20007469636B3A3078253038780A00000000F5
:103F300010B5FDF7A5FF002010BD10B500F0D8FAB0
:103F4000FFF7F6FF10BD0000F1B582B00298002522
:103F500000782C46002803D02248234F066835E01D
:103F60000021084600F07CF8FEBD06221FA1306843
:103F7000FCF7E4F9002828D13068801D00900298F1
:103F8000FCF7CCF9024600990298FCF7D7F9002813
:103F90001BD1002D04D1009C2046FCF7BFF905463B
:103FA0002046009901E0401C491C0278002A04D0F8
:103FB0000B78002B01D09A42F5D0001BA84200DA02
:103FC00005460CA0009900F0D1FC083638688642FE
:103FD000CBD3002CC8D02A462146029801F0C6F95E
:103FE000FEBD000044000020480000205F5F636DBC
:103FF000645F000025730A0038B5044601E0491EDD
:10400000641C20782028FAD00928F8D0002907D08D
:104010006A462046FFF794F9002803D0204604E0C2
:10402000002038BD009838BD401C0178202901D0FF
:104030000029F9D100210170214603A000F096FC6F
:104040000020C04338BD000025733A20636F6D6DBA
:10405000616E64206E6F7420666F756E642E0A0048
:1040600070B50EA000F082FC1348144D04680CE0FB
:10407000062213A12068FCF761F9002804D1216809
:1040800011A0891D00F072FC083428688442EFD327
:104090000EA000F06BFC002070BD000052542D54A7
:1040A0006872656164207368656C6C20636F6D6D08
:1040B000616E64733A0A000044000020480000204A
:1040C0005F5F636D645F0000257320000A000000DD
:1040D00001207047F8B5002317461C461D464AE0EC
:1040E0000570401C5B1C0278202A01D0092A01D1EE
:1040F0008B42F5D3082C10D321A000F037FC00250B
:1041000005E0A800395826A000F030FC6D1CA5423F
:10411000F7D322A000F02AFC2FE08B422DD2D2B29E
:10412000222A03D0A200B850641C1BE0A600401C49
:104130005B1CB851641C08E05C2E04D14278222A32
:1041400001D1401C5B1C401C5B1C0678222E01D058
:104150008B42F1D38B4210D20570401C5B1C0AE0ED
:10416000401C5B1C0278202A03D0092A01D08B4214
:10417000F6D38B4201D28B42B5D32046F8BD000066
:10418000546F6F206D616E792061726773202120FA
:104190005765206F6E6C79205573653A0A000000F0
:1041A000257320000246012000E050430B46491EC3
:1041B000C9B2002BF9D1704710B5044602E003A044
:1041C00000F0D4FB641EFAD210BD00002D000000E8
:1041D00070B5214D04462868844204D294221F49B8
:1041E0001FA000F035F96868844204D395221B496A
:1041F00023A000F02DF96088002804D096221749EA
:104200002AA000F025F96168286809188C4210D0AE
:104210004A88002A0DD16A6891420AD0AA688A4267
:1042200000D1AC604A6862604B68221A01460831CE
:104230005A50A1680918A1420CD04A88002A09D115
:10424000AA68A24200D1A96062684A60091A62683D
:104250000830115070BD00006C0000205379000838
:104260002872745F75696E74385F74202A296D65D1
:104270006D203E3D20686561705F707472000000C3
:104280002872745F75696E74385F74202A296D65B1
:104290006D203C202872745F75696E74385F7420DD
:1042A0002A29686561705F656E6400006D656D2D1B
:1042B0003E75736564203D3D20300000FFB589B038
:1042C0000446149E1298139F01900097700601D522
:1042D0004A4801E0494811380890F00601D57608AF
:1042E0007600F00701D0302000E020200790002069
:1042F0000690B0070DD5002A03DA2D205242069011
:1043000007E0700701D52B2002E0300701D52020FF
:1043100006900025002A04D1302069460872012544
:104320000CE00C980A2815D01107090F12090898FB
:10433000415C02A841556D1C002AF2D1BD4200DD4E
:104340002F460198112132460A40C01B2021002A25
:1043500006D015E010460A21FBF738FF0246E6E7D3
:10436000069A002A08D0002806DD401E04E00A9ABA
:10437000944200D22170641C0246401E002AF6DCE2
:10438000069A002A06D00A9A944201D2069A22700E
:10439000401E641CF20606D509E00A9A944201D236
:1043A000079A2270641C0246401E002AF5DC302267
:1043B0003B467F1EAB420CDD0A9B9C4200D2227022
:1043C000641CF5E70A9B9C4201D2535D2370641C78
:1043D00000E002AA2B466D1E002B08DD009B002B7F
:1043E000F0D104E00A9A944200D22170641C024683
:1043F000401E002AF6DC20460DB0F0BD31790008E1
:104400001CB514210A200123019100909B02002277
:10441000074908A001F075F8040004D1C322074938
:1044200007A000F015F8204601F008FA1CBD0000B6
:104430003B3F00086D61696E000000009677000840
:1044400074696420213D2052545F4E554C4C00004D
:1044500038B500236C462370084B5C68002C01D0F3
:10446000A04738BD13460A46014605A000F07EFA73
:10447000684600780028FBD038BD000064000020AA
:104480002825732920617373657274696F6E2066C5
:1044900061696C65642061742066756E6374696F10
:1044A0006E3A25732C206C696E65206E756D6265A1
:1044B000723A2564200A000070B504464C43204639
:1044C00000F09EFA050003D02246002100F0A3FB75
:1044D000284670BD70B5044C044D02E0206880474A
:1044E000241DAC42FAD370BD307D0008347D000835
:1044F00070B5044C044D02E020688047241DAC4296
:10450000FAD370BD347D00083C7D000810B5FBF780
:10451000F1FD034A5188491C5180FBF7EFFD10BDA6
:10452000B400002010B5FBF7E5FD0A4C6188491E78
:1045300009B26180002909DC00216180FBF7DEFD02
:104540006068002801D000F0CDFC10BDFBF7D6FD5F
:1045500010BD0000B400002070B504006AD0FBF765
:10456000C9FD054600F0F0F9002809D0324933A012
:1045700000F0FCF9872292002F493AA0FFF768FF6C
:104580002846FBF7BBFDA00704D0374A2A4937A0CD
:10459000FFF75EFF424D2868844202D36868844278
:1045A00005D3314A2449521C3E48FFF751FF286881
:1045B00084423FD3686884423CD20021C9433A48D0
:1045C0000C3C00F0A1FD6088F5267601002802D0A1
:1045D0002088B04211D035A000F0C8F92388628845
:1045E000214639A000F0C2F96088002805D11E4A92
:1045F0001149203240A0FFF72BFF2088B04205D0A0
:10460000194A0D4921323FA0FFF722FF00206080A8
:104610002680A868844200D2AC6029686068611A6C
:10462000401A2969081A28612046FFF7D1FD1E4863
:1046300000F030FD70BD00004B79000846756E63D8
:1046400074696F6E5B25735D207368616C6C206E9E
:104650006F74206265207573656420696E2049530C
:10466000520A0000300000001E02000028282872B4
:10467000745F75696E7433325F7429726D656D296C
:104680002026202852545F414C49474E5F53495AD7
:1046900045202D20312929203D3D203000000000FB
:1046A0006C000020447C0008941E0020746F20667B
:1046B00072656520612062616420646174612062BA
:1046C0006C6F636B3A0A00006D656D3A2030782597
:1046D0003038782C207573656420666C61673A20E9
:1046E00025642C206D6167696320636F64653A20DF
:1046F0003078253034780A006D656D2D3E75736510
:10470000640000006D656D2D3E6D61676963203D3D
:104710003D20484541505F4D41474943000000005E
:1047200000487047BC060020004870479C1C0020D1
:1047300010B5FDF735FBFEF705FB0F487D21C900DD
:104740000068FBF743FD0D49401E884208D80C491C
:104750000C4A4861FF20D070002088610720086162
:10476000FFF7B8FEFFF7E0FF0446FFF7D9FF214649
:1047700000F010FE10BD00000C000020FFFFFF0045
:1047800000E000E020ED00E010B50B4800240068D8
:10479000E443C169C943890602D4808CC4B208E0ED
:1047A000C169C943090701D4082101620A2000F048
:1047B000B7FFE0B210BD000074050020F8B5064652
:1047C0000D20694608700E4800240474304600F03D
:1047D000C5FD054611E0305D0A2806D108480123D1
:1047E0001A4669466038FDF773FA05480123311906
:1047F0001A466038FDF76CFA641CAC42EBD3F8BD86
:10480000D40500200446C16913A000F0AFF816A03B
:10481000A16900F0ABF818A0616900F0A7F81AA030
:10482000216900F0A3F81CA0E16800F09FF81EA029
:10483000A16800F09BF820A0616800F097F822A022
:10484000216800F093F82448016824A000F08EF855
:10485000FFF7EEF9FEE700007073723A203078251A
:104860003038780A000000002070633A2030782544
:104870003038780A00000000206C723A2030782529
:104880003038780A000000007231323A2030782542
:104890003038780A000000007230333A2030782532
:1048A0003038780A000000007230323A2030782523
:1048B0003038780A000000007230313A2030782514
:1048C0003038780A000000007230303A2030782505
:1048D0003038780A00000000B80000206861726477
:1048E000206661756C74206F6E20746872656164F7
:1048F0003A2025730A000000F0B50546121DD008C5
:10490000C0004038094E02460024A700641CD6515E
:10491000102CFAD31162002151629162D1623032BF
:104920002AC201210906C163F0BD0000EFBEADDE61
:1049300010B5FBF7DFFB034A1178491C1170FBF738
:10494000DDFB10BD600000200148007870470000CA
:104950006000002010B5FBF7CDFB034A1178491E1B
:104960001170FBF7CBFB10BD600000200FB410B539
:1049700003AB7F210548029A01F0CAFA0348FFF70A
:104980001DFF10BC08BC04B018470000141E002016
:104990000268516002680A600160486070470268FE
:1049A000516002680A6001604860704702685160A7
:1049B00002680A600160486070474268116042689E
:1049C0004A604160086070470246002100E0491CCF
:1049D00000689042FBD10846704706C808384A6014
:1049E00006C80838116040600060704706C8083883
:1049F0004A6006C8083811604060006070470000D7
:104A0000F8B504001AD0FBF775FB0546FFF79CFFCD
:104A1000002809D04E494FA0FFF7A8FFFF220C3213
:104A20004B4956A0FFF714FD2846FBF767FBE41C33
:104A3000A608534CB600E068864201D90020F8BDB4
:104A40000C2E00D20C260021C9434E4800F05CFB1E
:104A5000A1682068E2688C46091A9646931B70E0AC
:104A600045186A88002A6BD16A68521A0C3AB24219
:104A700066D36A68531A324618320C3B93422CD3E1
:104A80008B190C33F527C2187F0117800027578038
:104A90006F685760916001216B6069805168724650
:104AA0000C32914202D0024608328B50216989199A
:104AB0000C31216162698A4200D26161F5214901AC
:104AC0002980614665451CD162684B88002B0CD05B
:104AD00091420AD049680918F7E70121698069689D
:104AE0002A1A891A22698918E3E7A160914208D03D
:104AF0004888002805D0FF227632154922A0FFF70A
:104B0000A7FC204800F0C6FAA81961680C3088425A
:104B100005D9FF227A320E492548FFF799FCA807EC
:104B20000BD0FF227B320A492248FFF791FCFF227B
:104B30007C32074920A0FFF78BFC28460C30F8BDDB
:104B400069688B428CD80F4800F0A4FA76E7000021
:104B50007279000846756E6374696F6E5B25735DCC
:104B6000207368616C6C206E6F74206265207573B1
:104B7000656420696E204953520A0000300000002D
:104B80006C000020941E002028286C667265652049
:104B90003D3D20686561705F656E6429207C7C20E6
:104BA00028216C667265652D3E7573656429290040
:104BB000A07C0008F87B000828282872745F7569BB
:104BC0006E7433325F74296D656D2920262028525A
:104BD000545F414C49474E5F53495A45202D20317F
:104BE0002929203D3D20300010B5034699420FD2BF
:104BF0008C189C420CD9811803E0641E2378491E4E
:104C00000B70521EF9D210BD0C781C70491C5B1C35
:104C1000521EF9D210BD10B50346C9B201E0197099
:104C20005B1C521EFBD210BDF8B50F460646FBF7C3
:104C300061FA0446FFF788FE002809D01B491CA032
:104C4000FFF794FEFF225932184923A0FFF700FC1A
:104C50002046FBF753FA304600F0B2F8050005D1C4
:104C6000FF225D3211491DA0FFF7F2FBE868FFF754
:104C7000C7FE040018D00021EA68FFF7CCFF2672B7
:104C80000020607208223946204600F06FFBFBF7D7
:104C900031FA064621460C31281DFFF779FE3046D1
:104CA000FBF72CFA2046F8BD0020F8BDA7790008D4
:104CB00046756E6374696F6E5B25735D2073686102
:104CC0006C6C206E6F74206265207573656420695A
:104CD0006E204953520A000030000000696E666F72
:104CE000726D6174696F6E20213D2052545F4E5584
:104CF0004C4C000070B5040005D1FF2297320E49DC
:104D00000EA0FFF7A5FB207A000605D5FF229832FA
:104D100009490FA0FFF79CFB00202072FBF7EAF97E
:104D2000054620460C30FFF758FE2846FBF7E6F90B
:104D30002046FFF711FC70BDBA7900086F626A6502
:104D4000637420213D2052545F4E554C4C000000AE
:104D500021286F626A6563742D3E74797065202620
:104D60002052545F4F626A6563745F436C61737372
:104D70005F537461746963290000000070B504001A
:104D800005D1FF223632084908A0FFF761FB002059
:104D90002072FBF7AFF9054620460C30FFF71DFEE9
:104DA0002846FBF7ABF970BD967900086F626A651B
:104DB000637420213D2052545F4E554C4C0000003E
:104DC000064A00210B01D35C834202D108018018FE
:104DD0007047491C0329F5DB002070478400002040
:104DE00010B5040005D1FF22CC32044904A0FFF71E
:104DF0002FFB207A4006400E10BD0000E579000828
:104E00006F626A65637420213D2052545F4E554C99
:104E10004C000000F7B506460198FFF7D1FF0400EB
:104E200004D1FB22164917A0FFF712FBFFF76EFB18
:104E3000271D65680AE028460C38B04205D1FF22DC
:104E40000A320F4915A0FFF703FB2D68BD42F2D1CE
:104E5000FFF768FB01988021084330720822304632
:104E6000029900F083FAFBF745F9054631460C310B
:104E7000201DFFF78DFD2846FBF740F9FEBD000021
:104E800087790008696E666F726D6174696F6E2054
:104E9000213D2052545F4E554C4C00006F626A20F9
:104EA000213D206F626A65637400000010B5040044
:104EB00005D1FF22B932054905A0FFF7C9FA207ACA
:104EC000000601D5012010BD002010BDCB790008DF
:104ED0006F626A65637420213D2052545F4E554CC9
:104EE0004C000000F8B5FBF705F9154D074668883A
:104EF000002819D1A868FEF7E9F9401E114AC1003F
:104F000054586E68143CB4420ED0287020466C6031
:104F1000FEF77EFA0C480078002809D0214630467A
:104F20001C311C30FBF7EDF83846FBF7E7F8F8BD0D
:104F3000214630461C311C30FBF7E3F8F4E7000053
:104F4000B4000020B41E00206000002010B5040052
:104F500005D1FF222332114911A0FFF779FAFBF79F
:104F6000C9F8024620462030017D09090901491C83
:104F70000175407D0F49C000411820464B68143030
:104F800018604B68A361486061610B48A16B83683E
:104F9000194381601046FBF7B1F810BD217A000873
:104FA00074687265616420213D2052545F4E554CF7
:104FB0004C000000B41E0020B400002010B5040016
:104FC00005D1FF225132104910A0FFF741FAFBF73B
:104FD00091F8214614310CC9083953600CC90839BD
:104FE0001A60496009603521095DCA000C498B5877
:104FF00051188B4204D10B49A36B8A689A438A608B
:10500000FBF77CF810BD00003B7A000874687265FD
:10501000616420213D2052545F4E554C4C000000ED
:10502000B41E0020B4000020F8B51E4615460F46F9
:10503000040004D1CA220D490DA0FFF709FA01208E
:105040000004854204D3CB2208490DA0FFF700FAE3
:105050003A4602212046FFF7DDFE20461430A061CB
:105060006061A58366720020F8BD0000C07700086B
:1050700073656D20213D2052545F4E554C4C00000D
:1050800076616C7565203C20307831303030305599
:105090000000000070B5040005D1FF22B6321449AB
:1050A00014A0FFF7D5F92046FFF79AFE022805D095
:1050B000FF22B7320E491348FFF7CAF9FBF71AF877
:1050C0000546214660691431884208D0143800F042
:1050D0002DFB2846FBF712F8FFF704FF05E0A08B35
:1050E000401CA0832846FBF709F8002070BD000093
:1050F0000278000873656D20213D2052545F4E55A3
:105100004C4C0000B07B0008F3B581B0050005D120
:10511000FF224932464947A0FFF79AF92846FFF790
:105120005FFE022805D0FF224A3241494548FFF779
:105130008FF9FAF7DFFF0746A88B002805D0401E3D
:10514000A8833846FAF7DAFF70E00298002809D001
:10515000FAF7D0FF009000F029FBFF246A34002802
:1051600006D00EE03846FAF7C9FF0120C043FEBD65
:105170002F4935A0FFF7FAFB22462D4940A0FFF743
:1051800067F9FAF7B7FF0646FFF7DEFB002808D0FD
:1051900027493CA0FFF7EAFB2246254938A0FFF744
:1051A00057F93046FAF7AAFF0098FAF7A7FF00F080
:1051B000FDFA044600202E46206314366D7A204600
:1051C00000F09AFB002D17D0012D1AD12346203371
:1051D00035680DE0212128465A7D495D14388A4200
:1051E00005D2214614311430FFF7E7FB02E02D68A9
:1051F000B542EFD1B54204D1214614313046FFF714
:10520000DCFB0298002809DD2046443002AA002178
:10521000054600F09FFC284600F086FD3846FAF768
:105220006DFFFFF75FFE206B0028A0D10020FEBDC0
:10523000F677000873656D20213D2052545F4E556E
:105240004C4C0000B07B000846756E6374696F6E4D
:105250005B25735D207368616C6C206E6F742062D7
:10526000652075736564206265666F72652073637F
:10527000686564756C65722073746172740A0000ED
:105280003000000046756E6374696F6E5B25735D58
:10529000207368616C6C206E6F742062652075737A
:1052A000656420696E204953520A000008B509A0C0
:1052B000FFF75CFB0AA0FFF759FB12A00323009045
:1052C0000122194612A0FFF751FB19A0FFF74EFB70
:1052D00008BD00000A205C207C202F0A000000008E
:1052E0002D205254202D20202020205468726561EA
:1052F00064204F7065726174696E672053797374AE
:10530000656D0A004F637420323020323032300035
:10531000202F207C205C202020202025642E256446
:105320002E2564206275696C642025730A000000D4
:105330002032303036202D203230313920436F700A
:105340007972696768742062792072742D7468724A
:10535000656164207465616D0A000000014600E02B
:10536000491C0A78002AFBD1081A704710B5002A98
:1053700008D003460C781C70491C5B1C002C05D01F
:10538000521EF7D110BD19705B1C00E00021521EA7
:10539000F9D110BDF8B50646C01C84088D080F462B
:1053A000A400AD00FAF7A6FE0090FFF7CDFA0028A2
:1053B00008D01A491AA0FFF7D9FAC522174922A026
:1053C000FFF746F80098FAF799FE182D20D92846DD
:1053D0001838A0421CD3281B1C4D18382C60F5210E
:1053E000E8604901218000220C30A2606060628088
:1053F00002196A60118001215180506090600A4654
:10540000002313A11448FFF70FFE2868A860F8BD19
:105410003A46314611A0FFF7A9FAF8BD5E790008B7
:1054200046756E6374696F6E5B25735D207368618A
:105430006C6C206E6F7420626520757365642069E2
:105440006E204953520A0000300000006C0000201A
:105450006865617000000000941E00206D656D207D
:10546000696E69742C206572726F7220626567695B
:105470006E206164647265737320307825782C2007
:10548000616E6420656E642061646472657373206C
:10549000307825780A00000010B5002209480A4C2F
:1054A00042801146CB001B195B60491C1B60202900
:1054B000F8DB1F2101704260826002480C304060BE
:1054C000006010BDB4000020B41E002010B5074CD1
:1054D000A068FDF7FBFE401E0549C00008581438BF
:1054E00060601C30FAF745FE10BD0000B4000020DB
:1054F000B41E00200148406000607047CC000020CE
:105500007047FFB585B01D4601200E9F0F9E05997F
:10551000FFF78AFB041E0DD02846FFF771FA00281A
:105520000AD069460396A1C105A90EC92046FDF718
:10553000CDFF204609B0F0BD2046FFF7DBFB002081
:10554000F8E7000070B513480468FAF7D3FD054684
:105550002046FFF733FD0421342001552046443016
:1055600000F052FB2046FFF7A1FC012802D1206F7A
:1055700000280AD0214614310748FFF710FA2846C0
:10558000FAF7BCFDFFF7AEFC70BD2046FFF7F6FB57
:10559000F5E70000B8000020C000002000F002F88D
:1055A000FCE7000070B53CE0FAF7A4FD0446FFF705
:1055B000CBF9002808D0224922A0FFF7D7F9992279
:1055C0001F492AA0FEF744FF2046FAF797FDFAF795
:1055D00091FD0546FDF7AAFE00282CD0244801685D
:1055E0000C4605C90839426005C908391060496090
:1055F000143C0960FEF78AFF216F002901D0204684
:1056000088472046FFF752FC01280FD0FEF78AFF9B
:105610002846FAF773FDA06AFEF79EFF2046FFF7C3
:1056200069FBFDF783FE0028BED170BD2046FFF761
:10563000A5FBFEF777FF2846FAF760FD70BD000076
:10564000AA77000846756E6374696F6E5B25735D9B
:10565000207368616C6C206E6F74206265207573B6
:10566000656420696E204953520A00003000000032
:10567000C00000201FB5202307481F22D9006C4618
:105680000FC40023054A06A1783800F00DF802483F
:10569000783800F0D3F81FBD141D00209D55000878
:1056A0007469646C65000000FFB585B0109F119EA1
:1056B0000E9C050004D1E6220D490EA0FEF7C8FE9F
:1056C000002C04D1E7220A490FA0FEF7C1FE0121F8
:1056D0002846069AFFF79EFB0F98019002970396C3
:1056E000009406A90EC92846FDF7F0FE09B0F0BDEA
:1056F000657A000874687265616420213D20525407
:105700005F4E554C4C000000737461636B5F7374A3
:1057100061727420213D2052545F4E554C4C000064
:1057200010B500F0B3F900F047F810BD70B50400F3
:1057300004D1164A164917A0FEF78AFE2046FFF745
:105740004FFB012805D0114A1149521C1648FEF79B
:105750007FFE3420005D0007000F022802D00020E9
:10576000C04370BDFAF7C6FC054620461430FFF76B
:105770003DF92046443000F077FB2846FAF7BEFC9E
:105780002046FFF7E3FB002070BD0000B5020000DB
:10579000DC7A000874687265616420213D205254EF
:1057A0005F4E554C4C000000E87C00080148006842
:1057B00070470000B8000020F1B5FAF79BFC0546E1
:1057C00016480468002C05D1FF22F732144915A0B1
:1057D000FEF73EFE2046FFF703FB012805D0FF221F
:1057E000F8320F491448FEF733FE204600F084F8E3
:1057F000204644306A460021064600F0ABF93046A8
:1058000000F092FA2846FAF779FCFFF76BFB206B61
:10581000801C00D120630020F8BD0000B8000020EB
:10582000A87A000874687265616420213D20525492
:105830005F4E554C4C000000E87C000870B5040039
:1058400005D1FF220D32164916A0FEF701FE2546AE
:105850002035287D000705D0FF220E32104916A002
:10586000FEF7F6FD2046FFF7BBFA012805D0FF2220
:105870000F320B491E48FEF7EBFDA87D012168752C
:1058800081400220A16328752046FFF74FFF194889
:105890000068002801D0FFF725FB002070BD000044
:1058A000747A000874687265616420213D20525446
:1058B0005F4E554C4C000000287468726561642D81
:1058C0003E7374617420262052545F5448524541FF
:1058D000445F535441545F4D41534B29203D3D207B
:1058E00052545F5448524541445F494E4954000068
:1058F000E87C0008B800002070B5040004D1174A05
:10590000174918A0FEF7A4FD2046FFF769FA012801
:1059100005D0124A1249521C1748FEF799FD254638
:105920002035287D0007000F012802D00020C04349
:1059300070BDFAF7DFFB0646287D00090001801CD8
:1059400028752046FFF73AFB2046443000F08CFAD9
:105950003046FAF7D3FB002070BD00008A02000039
:10596000CA7A000874687265616420213D2052542F
:105970005F4E554C4C000000E87C000810B5040058
:1059800004D1144A144915A0FEF762FD3420005DCD
:105990000007000F022805D00E4A0F49521C14A020
:1059A000FEF756FD2046FFF71BFA012805D0B92265
:1059B000920009491D48FEF74BFD0120C0432063BA
:1059C00020461430FFF712F82046FFF7BFFAFFF722
:1059D00089FA10BDE2020000ED7A00087468726571
:1059E000616420213D2052545F4E554C4C00000014
:1059F000287468726561642D3E737461742026207A
:105A000052545F5448524541445F535441545F4D92
:105A100041534B29203D3D2052545F54485245414B
:105A2000445F53555350454E44000000E87C000845
:105A300070B5FAF75FFB0546124800680646203647
:105A4000317D0907090F012917D182694169914206
:105A500013D014300446FEF7C9FF707D0A49C00018
:105A6000401841680C6041686160446020602846CD
:105A7000FAF744FBFFF736FA02E02846FAF73EFB56
:105A8000002070BDB8000020B41E002070B50028B2
:105A900002DA0020C04370BD7D25ED002946FAF7EB
:105AA000ABFB2A46424328464143401E0818144691
:105AB0002946FAF7A1FB001970BD000001480068F3
:105AC000704700005C00002010B508480168491CC0
:105AD0000160FFF76BFE016C491E016403D1C16BCD
